{
  "_format": "hh-sol-artifact-1",
  "contractName": "CampaignFactory",
  "sourceName": "contracts/Campaign.sol",
  "abi": [
    {
      "anonymous": false,
      "inputs": [
        {
          "indexed": false,
          "internalType": "string",
          "name": "title",
          "type": "string"
        },
        {
          "indexed": false,
          "internalType": "uint256",
          "name": "requiredAmount",
          "type": "uint256"
        },
        {
          "indexed": true,
          "internalType": "address",
          "name": "owner",
          "type": "address"
        },
        {
          "indexed": false,
          "internalType": "address",
          "name": "campaignAddress",
          "type": "address"
        },
        {
          "indexed": true,
          "internalType": "uint256",
          "name": "timestamp",
          "type": "uint256"
        },
        {
          "indexed": true,
          "internalType": "string",
          "name": "category",
          "type": "string"
        }
      ],
      "name": "CampaignCreated",
      "type": "event"
    },
    {
      "inputs": [
        {
          "internalType": "string",
          "name": "campaignTitle",
          "type": "string"
        },
        {
          "internalType": "uint256",
          "name": "requiredCampaignAmount",
          "type": "uint256"
        },
        {
          "internalType": "string",
          "name": "category",
          "type": "string"
        },
        {
          "internalType": "string",
          "name": "campaignDescription",
          "type": "string"
        }
      ],
      "name": "createCampaign",
      "outputs": [],
      "stateMutability": "nonpayable",
      "type": "function"
    },
    {
      "inputs": [
        {
          "internalType": "uint256",
          "name": "",
          "type": "uint256"
        }
      ],
      "name": "deployedCampaigns",
      "outputs": [
        {
          "internalType": "address",
          "name": "",
          "type": "address"
        }
      ],
      "stateMutability": "view",
      "type": "function"
    }
  ],
  "bytecode": "0x608060405234801561001057600080fd5b506113e2806100206000396000f3fe60806040523480156200001157600080fd5b50600436106200003a5760003560e01c8063339d50a5146200003f57806351b1f4631462000075575b600080fd5b6200005d60048036038101906200005791906200024c565b62000095565b6040516200006c9190620002c3565b60405180910390f35b6200009360048036038101906200008d919062000442565b620000d5565b005b60008181548110620000a657600080fd5b906000526020600020016000915054906101000a900473ffffffffffffffffffffffffffffffffffffffff1681565b600084848333604051620000e990620001ef565b620000f89493929190620005ab565b604051809103906000f08015801562000115573d6000803e3d6000fd5b5090506000819080600181540180825580915050600190039060005260206000200160009091909190916101000a81548173ffffffffffffffffffffffffffffffffffffffff021916908373ffffffffffffffffffffffffffffffffffffffff160217905550826040516200018b919062000648565b6040518091039020423373ffffffffffffffffffffffffffffffffffffffff167f105c32182bdb9c8348180aed6ee8bc61ba6fc5378f2340ac2f14645607f2f489888886604051620001e09392919062000661565b60405180910390a45050505050565b610d0780620006a683390190565b6000604051905090565b600080fd5b600080fd5b6000819050919050565b620002268162000211565b81146200023257600080fd5b50565b60008135905062000246816200021b565b92915050565b60006020828403121562000265576200026462000207565b5b6000620002758482850162000235565b91505092915050565b600073ffffffffffffffffffffffffffffffffffffffff82169050919050565b6000620002ab826200027e565b9050919050565b620002bd816200029e565b82525050565b6000602082019050620002da6000830184620002b2565b92915050565b600080fd5b600080fd5b6000601f19601f8301169050919050565b7f4e487b7100000000000000000000000000000000000000000000000000000000600052604160045260246000fd5b6200033582620002ea565b810181811067ffffffffffffffff82111715620003575762000356620002fb565b5b80604052505050565b60006200036c620001fd565b90506200037a82826200032a565b919050565b600067ffffffffffffffff8211156200039d576200039c620002fb565b5b620003a882620002ea565b9050602081019050919050565b82818337600083830152505050565b6000620003db620003d5846200037f565b62000360565b905082815260208101848484011115620003fa57620003f9620002e5565b5b62000407848285620003b5565b509392505050565b600082601f830112620004275762000426620002e0565b5b813562000439848260208601620003c4565b91505092915050565b600080600080608085870312156200045f576200045e62000207565b5b600085013567ffffffffffffffff81111562000480576200047f6200020c565b5b6200048e878288016200040f565b9450506020620004a18782880162000235565b935050604085013567ffffffffffffffff811115620004c557620004c46200020c565b5b620004d3878288016200040f565b925050606085013567ffffffffffffffff811115620004f757620004f66200020c565b5b62000505878288016200040f565b91505092959194509250565b600081519050919050565b600082825260208201905092915050565b60005b838110156200054d57808201518184015260208101905062000530565b60008484015250505050565b6000620005668262000511565b6200057281856200051c565b9350620005848185602086016200052d565b6200058f81620002ea565b840191505092915050565b620005a58162000211565b82525050565b60006080820190508181036000830152620005c7818762000559565b9050620005d860208301866200059a565b8181036040830152620005ec818562000559565b9050620005fd6060830184620002b2565b95945050505050565b600081905092915050565b60006200061e8262000511565b6200062a818562000606565b93506200063c8185602086016200052d565b80840191505092915050565b600062000656828462000611565b915081905092915050565b600060608201905081810360008301526200067d818662000559565b90506200068e60208301856200059a565b6200069d6040830184620002b2565b94935050505056fe60806040523480156200001157600080fd5b5060405162000d0738038062000d078339818101604052810190620000379190620002e0565b8360009081620000489190620005d1565b50826001819055508160029081620000619190620005d1565b5080600360006101000a81548173ffffffffffffffffffffffffffffffffffffffff021916908373ffffffffffffffffffffffffffffffffffffffff16021790555050505050620006b8565b6000604051905090565b600080fd5b600080fd5b600080fd5b600080fd5b6000601f19601f8301169050919050565b7f4e487b7100000000000000000000000000000000000000000000000000000000600052604160045260246000fd5b6200011682620000cb565b810181811067ffffffffffffffff82111715620001385762000137620000dc565b5b80604052505050565b60006200014d620000ad565b90506200015b82826200010b565b919050565b600067ffffffffffffffff8211156200017e576200017d620000dc565b5b6200018982620000cb565b9050602081019050919050565b60005b83811015620001b657808201518184015260208101905062000199565b60008484015250505050565b6000620001d9620001d38462000160565b62000141565b905082815260208101848484011115620001f857620001f7620000c6565b5b6200020584828562000196565b509392505050565b600082601f830112620002255762000224620000c1565b5b815162000237848260208601620001c2565b91505092915050565b6000819050919050565b620002558162000240565b81146200026157600080fd5b50565b60008151905062000275816200024a565b92915050565b600073ffffffffffffffffffffffffffffffffffffffff82169050919050565b6000620002a8826200027b565b9050919050565b620002ba816200029b565b8114620002c657600080fd5b50565b600081519050620002da81620002af565b92915050565b60008060008060808587031215620002fd57620002fc620000b7565b5b600085015167ffffffffffffffff8111156200031e576200031d620000bc565b5b6200032c878288016200020d565b94505060206200033f8782880162000264565b935050604085015167ffffffffffffffff811115620003635762000362620000bc565b5b62000371878288016200020d565b92505060606200038487828801620002c9565b91505092959194509250565b600081519050919050565b7f4e487b7100000000000000000000000000000000000000000000000000000000600052602260045260246000fd5b60006002820490506001821680620003e357607f821691505b602082108103620003f957620003f86200039b565b5b50919050565b60008190508160005260206000209050919050565b60006020601f8301049050919050565b600082821b905092915050565b600060088302620004637fffffffffffffffffffffffffffffffffffffffffffffffffffffffffffffffff8262000424565b6200046f868362000424565b95508019841693508086168417925050509392505050565b6000819050919050565b6000620004b2620004ac620004a68462000240565b62000487565b62000240565b9050919050565b6000819050919050565b620004ce8362000491565b620004e6620004dd82620004b9565b84845462000431565b825550505050565b600090565b620004fd620004ee565b6200050a818484620004c3565b505050565b5b81811015620005325762000526600082620004f3565b60018101905062000510565b5050565b601f82111562000581576200054b81620003ff565b620005568462000414565b8101602085101562000566578190505b6200057e620005758562000414565b8301826200050f565b50505b505050565b600082821c905092915050565b6000620005a66000198460080262000586565b1980831691505092915050565b6000620005c1838362000593565b9150826002028217905092915050565b620005dc8262000390565b67ffffffffffffffff811115620005f857620005f7620000dc565b5b620006048254620003ca565b6200061182828562000536565b600060209050601f83116001811462000649576000841562000634578287015190505b620006408582620005b3565b865550620006b0565b601f1984166200065986620003ff565b60005b8281101562000683578489015182556001820191506020850194506020810190506200065c565b86831015620006a357848901516200069f601f89168262000593565b8355505b6001600288020188555050505b505050505050565b61063f80620006c86000396000f3fe6080604052600436106100555760003560e01c806348b9ef401461005a5780634a79d50c146100855780637284e416146100b05780638da5cb5b146100db5780639632e72014610106578063ed88c68e14610131575b600080fd5b34801561006657600080fd5b5061006f61013b565b60405161007c91906103b1565b60405180910390f35b34801561009157600080fd5b5061009a610141565b6040516100a7919061045c565b60405180910390f35b3480156100bc57600080fd5b506100c56101cf565b6040516100d2919061045c565b60405180910390f35b3480156100e757600080fd5b506100f061025d565b6040516100fd91906104bf565b60405180910390f35b34801561011257600080fd5b5061011b610283565b60405161012891906103b1565b60405180910390f35b610139610289565b005b60015481565b6000805461014e90610509565b80601f016020809104026020016040519081016040528092919081815260200182805461017a90610509565b80156101c75780601f1061019c576101008083540402835291602001916101c7565b820191906000526020600020905b8154815290600101906020018083116101aa57829003601f168201915b505050505081565b600280546101dc90610509565b80601f016020809104026020016040519081016040528092919081815260200182805461020890610509565b80156102555780601f1061022a57610100808354040283529160200191610255565b820191906000526020600020905b81548152906001019060200180831161023857829003601f168201915b505050505081565b600360009054906101000a900473ffffffffffffffffffffffffffffffffffffffff1681565b60045481565b600154600454106102cf576040517f08c379a00000000000000000000000000000000000000000000000000000000081526004016102c690610586565b60405180910390fd5b600360009054906101000a900473ffffffffffffffffffffffffffffffffffffffff1673ffffffffffffffffffffffffffffffffffffffff166108fc349081150290604051600060405180830381858888f19350505050158015610337573d6000803e3d6000fd5b50346004600082825461034a91906105d5565b9250508190555042343373ffffffffffffffffffffffffffffffffffffffff167f4928895ba6723e8e27b15f32e4c3054a1b6c7f8c03f133558d6fa42b3928d14c60405160405180910390a4565b6000819050919050565b6103ab81610398565b82525050565b60006020820190506103c660008301846103a2565b92915050565b600081519050919050565b600082825260208201905092915050565b60005b838110156104065780820151818401526020810190506103eb565b60008484015250505050565b6000601f19601f8301169050919050565b600061042e826103cc565b61043881856103d7565b93506104488185602086016103e8565b61045181610412565b840191505092915050565b600060208201905081810360008301526104768184610423565b905092915050565b600073ffffffffffffffffffffffffffffffffffffffff82169050919050565b60006104a98261047e565b9050919050565b6104b98161049e565b82525050565b60006020820190506104d460008301846104b0565b92915050565b7f4e487b7100000000000000000000000000000000000000000000000000000000600052602260045260246000fd5b6000600282049050600182168061052157607f821691505b602082108103610534576105336104da565b5b50919050565b7f526571756972656420616d6f756e742066756c66696c6c656400000000000000600082015250565b60006105706019836103d7565b915061057b8261053a565b602082019050919050565b6000602082019050818103600083015261059f81610563565b9050919050565b7f4e487b7100000000000000000000000000000000000000000000000000000000600052601160045260246000fd5b60006105e082610398565b91506105eb83610398565b9250828201905080821115610603576106026105a6565b5b9291505056fea2646970667358221220cbeaad7ea801d41ead8a425e725d922197b9f02f6409657226d3e8bbf82f658664736f6c63430008180033a26469706673582212207976423f3b3557c79c13cab9e1d3211c42dc8db047eaeaaf6d5f7ac95979ac0664736f6c63430008180033",
  "linkReferences": {},
  "deployedLinkReferences": {}
}