{
  "_format": "hh-sol-artifact-1",
  "contractName": "Campaign",
  "sourceName": "contracts/Campaign.sol",
  "abi": [
    {
      "inputs": [
        {
          "internalType": "string",
          "name": "campaignTitle",
          "type": "string"
        },
        {
          "internalType": "string",
          "name": "campaignImage",
          "type": "string"
        },
        {
          "internalType": "string",
          "name": "campaignDescription",
          "type": "string"
        },
        {
          "internalType": "uint256",
          "name": "campaignFundingGoal",
          "type": "uint256"
        }
      ],
      "stateMutability": "nonpayable",
      "type": "constructor"
    },
    {
      "anonymous": false,
      "inputs": [
        {
          "indexed": true,
          "internalType": "address",
          "name": "donor",
          "type": "address"
        },
        {
          "indexed": true,
          "internalType": "uint256",
          "name": "amount",
          "type": "uint256"
        },
        {
          "indexed": true,
          "internalType": "uint256",
          "name": "timestamp",
          "type": "uint256"
        }
      ],
      "name": "contributed",
      "type": "event"
    },
    {
      "inputs": [],
      "name": "contribute",
      "outputs": [],
      "stateMutability": "payable",
      "type": "function"
    },
    {
      "inputs": [],
      "name": "creator",
      "outputs": [
        {
          "internalType": "address payable",
          "name": "",
          "type": "address"
        }
      ],
      "stateMutability": "view",
      "type": "function"
    },
    {
      "inputs": [],
      "name": "currentFunding",
      "outputs": [
        {
          "internalType": "uint256",
          "name": "",
          "type": "uint256"
        }
      ],
      "stateMutability": "view",
      "type": "function"
    },
    {
      "inputs": [],
      "name": "deadline",
      "outputs": [
        {
          "internalType": "uint256",
          "name": "",
          "type": "uint256"
        }
      ],
      "stateMutability": "view",
      "type": "function"
    },
    {
      "inputs": [],
      "name": "description",
      "outputs": [
        {
          "internalType": "string",
          "name": "",
          "type": "string"
        }
      ],
      "stateMutability": "view",
      "type": "function"
    },
    {
      "inputs": [],
      "name": "fundingGoal",
      "outputs": [
        {
          "internalType": "uint256",
          "name": "",
          "type": "uint256"
        }
      ],
      "stateMutability": "view",
      "type": "function"
    },
    {
      "inputs": [],
      "name": "image",
      "outputs": [
        {
          "internalType": "string",
          "name": "",
          "type": "string"
        }
      ],
      "stateMutability": "view",
      "type": "function"
    },
    {
      "inputs": [],
      "name": "title",
      "outputs": [
        {
          "internalType": "string",
          "name": "",
          "type": "string"
        }
      ],
      "stateMutability": "view",
      "type": "function"
    }
  ],
  "bytecode": "0x60806040523480156200001157600080fd5b5060405162000eb838038062000eb883398181016040528101906200003791906200028d565b33600560006101000a81548173ffffffffffffffffffffffffffffffffffffffff021916908373ffffffffffffffffffffffffffffffffffffffff16021790555083600090816200008991906200059d565b5082600190816200009b91906200059d565b508160029081620000ad91906200059d565b50806003819055505050505062000684565b6000604051905090565b600080fd5b600080fd5b600080fd5b600080fd5b6000601f19601f8301169050919050565b7f4e487b7100000000000000000000000000000000000000000000000000000000600052604160045260246000fd5b6200012882620000dd565b810181811067ffffffffffffffff821117156200014a5762000149620000ee565b5b80604052505050565b60006200015f620000bf565b90506200016d82826200011d565b919050565b600067ffffffffffffffff82111562000190576200018f620000ee565b5b6200019b82620000dd565b9050602081019050919050565b60005b83811015620001c8578082015181840152602081019050620001ab565b60008484015250505050565b6000620001eb620001e58462000172565b62000153565b9050828152602081018484840111156200020a5762000209620000d8565b5b62000217848285620001a8565b509392505050565b600082601f830112620002375762000236620000d3565b5b815162000249848260208601620001d4565b91505092915050565b6000819050919050565b620002678162000252565b81146200027357600080fd5b50565b60008151905062000287816200025c565b92915050565b60008060008060808587031215620002aa57620002a9620000c9565b5b600085015167ffffffffffffffff811115620002cb57620002ca620000ce565b5b620002d9878288016200021f565b945050602085015167ffffffffffffffff811115620002fd57620002fc620000ce565b5b6200030b878288016200021f565b935050604085015167ffffffffffffffff8111156200032f576200032e620000ce565b5b6200033d878288016200021f565b9250506060620003508782880162000276565b91505092959194509250565b600081519050919050565b7f4e487b7100000000000000000000000000000000000000000000000000000000600052602260045260246000fd5b60006002820490506001821680620003af57607f821691505b602082108103620003c557620003c462000367565b5b50919050565b60008190508160005260206000209050919050565b60006020601f8301049050919050565b600082821b905092915050565b6000600883026200042f7fffffffffffffffffffffffffffffffffffffffffffffffffffffffffffffffff82620003f0565b6200043b8683620003f0565b95508019841693508086168417925050509392505050565b6000819050919050565b60006200047e62000478620004728462000252565b62000453565b62000252565b9050919050565b6000819050919050565b6200049a836200045d565b620004b2620004a98262000485565b848454620003fd565b825550505050565b600090565b620004c9620004ba565b620004d68184846200048f565b505050565b5b81811015620004fe57620004f2600082620004bf565b600181019050620004dc565b5050565b601f8211156200054d576200051781620003cb565b6200052284620003e0565b8101602085101562000532578190505b6200054a6200054185620003e0565b830182620004db565b50505b505050565b600082821c905092915050565b6000620005726000198460080262000552565b1980831691505092915050565b60006200058d83836200055f565b9150826002028217905092915050565b620005a8826200035c565b67ffffffffffffffff811115620005c457620005c3620000ee565b5b620005d0825462000396565b620005dd82828562000502565b600060209050601f83116001811462000615576000841562000600578287015190505b6200060c85826200057f565b8655506200067c565b601f1984166200062586620003cb565b60005b828110156200064f5784890151825560018201915060208501945060208101905062000628565b868310156200066f57848901516200066b601f8916826200055f565b8355505b6001600288020188555050505b505050505050565b61082480620006946000396000f3fe60806040526004361061007b5760003560e01c80637284e4161161004e5780637284e4161461012c5780637a3a0e8414610157578063d7bb99ba14610182578063f3ccaac01461018c5761007b565b806302d05d3f146100805780630888b70d146100ab57806329dcb0cf146100d65780634a79d50c14610101575b600080fd5b34801561008c57600080fd5b506100956101b7565b6040516100a2919061052c565b60405180910390f35b3480156100b757600080fd5b506100c06101dd565b6040516100cd9190610560565b60405180910390f35b3480156100e257600080fd5b506100eb6101e3565b6040516100f89190610560565b60405180910390f35b34801561010d57600080fd5b506101166101e9565b604051610123919061060b565b60405180910390f35b34801561013857600080fd5b50610141610277565b60405161014e919061060b565b60405180910390f35b34801561016357600080fd5b5061016c610305565b6040516101799190610560565b60405180910390f35b61018a61030b565b005b34801561019857600080fd5b506101a161045d565b6040516101ae919061060b565b60405180910390f35b600560009054906101000a900473ffffffffffffffffffffffffffffffffffffffff1681565b60045481565b60065481565b600080546101f69061065c565b80601f01602080910402602001604051908101604052809291908181526020018280546102229061065c565b801561026f5780601f106102445761010080835404028352916020019161026f565b820191906000526020600020905b81548152906001019060200180831161025257829003601f168201915b505050505081565b600280546102849061065c565b80601f01602080910402602001604051908101604052809291908181526020018280546102b09061065c565b80156102fd5780601f106102d2576101008083540402835291602001916102fd565b820191906000526020600020905b8154815290600101906020018083116102e057829003601f168201915b505050505081565b60035481565b60045460035411610351576040517f08c379a0000000000000000000000000000000000000000000000000000000008152600401610348906106d9565b60405180910390fd5b60003411610394576040517f08c379a000000000000000000000000000000000000000000000000000000000815260040161038b9061076b565b60405180910390fd5b34600460008282546103a691906107ba565b92505081905550600560009054906101000a900473ffffffffffffffffffffffffffffffffffffffff1673ffffffffffffffffffffffffffffffffffffffff166108fc349081150290604051600060405180830381858888f19350505050158015610415573d6000803e3d6000fd5b5042343373ffffffffffffffffffffffffffffffffffffffff167f377c50534b14698395ed573ff5b8d4841c6618456737de44217436ada6817cc760405160405180910390a4565b6001805461046a9061065c565b80601f01602080910402602001604051908101604052809291908181526020018280546104969061065c565b80156104e35780601f106104b8576101008083540402835291602001916104e3565b820191906000526020600020905b8154815290600101906020018083116104c657829003601f168201915b505050505081565b600073ffffffffffffffffffffffffffffffffffffffff82169050919050565b6000610516826104eb565b9050919050565b6105268161050b565b82525050565b6000602082019050610541600083018461051d565b92915050565b6000819050919050565b61055a81610547565b82525050565b60006020820190506105756000830184610551565b92915050565b600081519050919050565b600082825260208201905092915050565b60005b838110156105b557808201518184015260208101905061059a565b60008484015250505050565b6000601f19601f8301169050919050565b60006105dd8261057b565b6105e78185610586565b93506105f7818560208601610597565b610600816105c1565b840191505092915050565b6000602082019050818103600083015261062581846105d2565b905092915050565b7f4e487b7100000000000000000000000000000000000000000000000000000000600052602260045260246000fd5b6000600282049050600182168061067457607f821691505b6020821081036106875761068661062d565b5b50919050565b7f46756e64696e6720676f616c20686173206265656e206d657400000000000000600082015250565b60006106c3601983610586565b91506106ce8261068d565b602082019050919050565b600060208201905081810360008301526106f2816106b6565b9050919050565b7f436f6e747269627574696f6e206d75737420626520677265617465722074686160008201527f6e20300000000000000000000000000000000000000000000000000000000000602082015250565b6000610755602383610586565b9150610760826106f9565b604082019050919050565b6000602082019050818103600083015261078481610748565b9050919050565b7f4e487b7100000000000000000000000000000000000000000000000000000000600052601160045260246000fd5b60006107c582610547565b91506107d083610547565b92508282019050808211156107e8576107e761078b565b5b9291505056fea264697066735822122058ca8da1af935d22b3d78b8b2d359128a0fb7a9f875f5e865e8873b44aae64e564736f6c63430008180033",
  "linkReferences": {},
  "deployedLinkReferences": {}
}